:0A0FF600FFFFFFFFFFFFF65AA5AF53
:0300000002017981
:03000B0002009060
:10009000C0E0C0D0758CAE758A9F0530E531B400E4
:1000A000222093410535E535B4070375350071C746
:1000B000E8A881181876011876D1F87532147531D0
:1000C000018022B40108D5321C7531028017B402B8
:1000D0000B3093117532147531038009B40306D5C2
:1000E0003203753100E533B400222087410536E53F
:1000F00036B4020375360071C7E536B40104D28107
:100100008002C2817534147533018022B40108D590
:10011000341C7533028017B4020B30871175341408
:100120007533038009B40306D53403753300E5370E
:10013000B4010DD53815C28175370275380A800BA8
:10014000B40208D53805D28175370030A018E53FD4
:100150007022753F01D294E536B40118D28175370B
:100160000175380A800EE53F600AC294C281753776
:1001700000753F00D0D0D0E0327530007531007589
:10018000320075330075340075350075360071AC7A
:10019000E536B4010D30A00AD28175370175380AF1
:1001A0008005C281753700758CAE758A9F7589018F
:1001B000D2A9D2AFD28C75F94375FA14C280C28627
:1001C000C29230A007D294753F018005C294753F5A
:1001D00000E535B40006C280C286C292B40106D2E0
:1001E00080D286D292B40206C280D286C292B40372
:1001F00006C280D286D292B40406C280C286D2924F
:10020000B40506D280C286D292B406FDC280C286F0
:10021000C292900BC5A982AA839003F5AB82AC83EE
:100220007E047FE8AD300DEDB530FDD286D29289E7
:10023000828A83C3E5829401F582E5839400F58385
:10024000E493F53CC3E5829401F582E5839400F5DF
:1002500083E493F53BA982AA838B828C83E493F594
:100260003DA3E493F53EA3AB82AC83EDB53010E53E
:100270008CC3953B400B7007E58AC3953C4002C296
:1002800086EDB53010E58CC3953D40DF7007E58AFB
:10029000C3953E40D6C292EDB5300280CEDF87DEF8
:1002A00085D2929003F57E047FE80DEDB530FDD246
:1002B00080E493F539A3E493F53AA3EDB53010E566
:1002C0008CC3953940F57007E58AC3953A40ECC276
:1002D00080DFD7DED57E047FE80DEDB530FDD2801E
:1002E000C3E5829401F582E5839400F583E493F5F8
:1002F0003AC3E5829401F582E5839400F583E493A3
:10030000F539EDB53010E58CC3953940F57007E54A
:100310008AC3953A40ECC280DFBFDEBD9003F5A9E9
:1003200082AA83900BC5AB82AC837E047FE80DED7F
:10033000B530FDD286D29289828A83E493F53BA3BD
:10034000E493F53CA3A982AA838B828C83C3E582C4
:100350009401F582E5839400F583E493F53EC3E5CB
:10036000829401F582E5839400F583E493F53DAB37
:1003700082AC83EDB53010E58CC3953B400B700724
:10038000E58AC3953C4002C286EDB53010E58CC3CA
:10039000953D40DF7007E58AC3953E40D6C292ED99
:1003A000B5300280CEDF87DE85020212900FC0E4F6
:1003B00093F8740193F9C3E8940750028835C3E9B0
:1003C00094025002893622C0E0C0D0784074207672
:1003D000FF081470FA7840E535F608E536F67597AB
:1003E0004075960F78C0740A48F59575945A0000C8
:1003F000D0D0D0E022AE9FAE9FAE9FAE9FAE9FAE5C
:10040000A0AEA0AEA0AEA0AEA1AEA1AEA2AEA2AE76
:10041000A3AEA3AEA4AEA4AEA5AEA6AEA7AEA7AE45
:10042000A8AEA9AEAAAEABAEACAEADAEAEAEAFAE00
:10043000B1AEB2AEB3AEB4AEB6AEB7AEB9AEBAAEA2
:10044000BCAEBDAEBFAEC0AEC2AEC4AEC6AEC7AE31
:10045000C9AECBAECDAECFAED1AED3AED5AED7AEAC
:10046000DAAEDCAEDEAEE0AEE3AEE5AEE8AEEAAE0E
:10047000EDAEEFAEF2AEF4AEF7AEFAAEFDAF00AF5A
:1004800002AF05AF08AF0BAF0EAF11AF14AF18AF8F
:100490001BAF1EAF21AF25AF28AF2BAF2FAF32AFB1
:1004A00036AF39AF3DAF41AF44AF48AF4CAF50AFBF
:1004B00054AF57AF5BAF5FAF63AF67AF6CAF70AFB9
:1004C00074AF78AF7CAF81AF85AF8AAF8EAF92AF9C
:1004D00097AF9CAFA0AFA5AFAAAFAEAFB3AFB8AF69
:1004E000BDAFC2AFC7AFCCAFD1AFD6AFDBAFE0AF20
:1004F000E5AFEAAFF0AFF5AFFAB000B005B00BB0C2
:1005000010B016B01BB021B027B02DB032B038B04B
:100510003EB044B04AB050B056B05CB062B068B0C3
:100520006EB075B07BB081B088B08EB094B09BB027
:10053000A2B0A8B0AFB0B5B0BCB0C3B0CAB0D0B074
:10054000D7B0DEB0E5B0ECB0F3B0FAB101B109B1AB
:1005500010B117B11EB126B12DB134B13CB143B1C8
:100560004BB152B15AB162B169B171B179B181B1D6
:1005700089B191B198B1A0B1A9B1B1B1B9B1C1B1CD
:10058000C9B1D1B1DAB1E2B1EAB1F3B1FBB204B2AF
:100590000CB215B21DB226B22FB238B240B249B277
:1005A00052B25BB264B26DB276B27FB288B291B22F
:1005B0009AB2A4B2ADB2B6B2C0B2C9B2D3B2DCB2D2
:1005C000E6B2EFB2F9B303B30CB316B320B32AB358
:1005D00033B33DB347B351B35BB365B370B37AB3D1
:1005E00084B38EB398B3A3B3ADB3B8B3C2B3CDB332
:1005F000D7B3E2B3ECB3F7B402B40CB417B422B47B
:100600002DB438B443B44EB459B464B46FB47AB4AE
:1006100085B491B49CB4A7B4B3B4BEB4CAB4D5B4D1
:10062000E1B4ECB4F8B504B50FB51BB527B533B5D7
:100630003EB54AB556B562B56EB57AB587B593B5D0
:100640009FB5ABB5B8B5C4B5D0B5DDB5E9B5F6B6AF
:1006500002B60FB61BB628B635B642B64EB65BB676
:1006600068B675B682B68FB69CB6A9B6B6B6C3B62E
:10067000D1B6DEB6EBB6F8B706B713B721B72EB7CB
:100680003CB749B757B765B772B780B78EB79CB755
:10069000AAB7B8B7C6B7D4B7E2B7F0B7FEB80CB8C8
:1006A0001AB828B837B845B853B862B870B87FB828
:1006B0008DB89CB8ABB8B9B8C8B8D7B8E6B8F4B973
:1006C00003B912B921B930B93FB94EB95EB96DB9A4
:1006D0007CB98BB99AB9AAB9B9B9C9B9D8B9E8B9C5
:1006E000F7BA07BA16BA26BA36BA46BA55BA65BACA
:1006F00075BA85BA95BAA5BAB5BAC5BAD5BAE5BAC2
:10070000F6BB06BB16BB27BB37BB47BB58BB68BB9A
:1007100079BB89BB9ABBABBBBCBBCCBBDDBBEEBB67
:10072000FFBC10BC21BC32BC43BC54BC65BC76BC15
:1007300087BC99BCAABCBBBCCDBCDEBCF0BD01BDB6
:1007400013BD24BD36BD48BD59BD6BBD7DBD8FBD3C
:10075000A1BDB3BDC5BDD7BDE9BDFBBE0DBE1FBEAE
:1007600031BE43BE56BE68BE7BBE8DBE9FBEB2BE0E
:10077000C5BED7BEEABEFCBF0FBF22BF35BF48BF54
:100780005ABF6DBF80BF93BFA6BFBABFCDBFE0BF8A
:10079000F3C006C01AC02DC040C054C067C07BC0A3
:1007A0008EC0A2C0B6C0C9C0DDC0F1C105C118C1AC
:1007B0002CC140C154C168C17CC190C1A5C1B9C19F
:1007C000CDC1E1C1F6C20AC21EC233C247C25CC279
:1007D00070C285C29AC2AEC2C3C2D8C2EDC301C341
:1007E00016C32BC340C355C36AC37FC395C3AAC3F3
:1007F000BFC3D4C3EAC3FFC414C42AC43FC455C48E
:100800006AC480C496C4ABC4C1C4D7C4EDC502C514
:1008100018C52EC544C55AC570C586C59DC5B3C586
:10082000C9C5DFC5F6C60CC622C639C64FC666C6E0
:100830007CC693C6AAC6C0C6D7C6EEC705C71BC727
:1008400032C749C760C777C78EC7A5C7BDC7D4C75A
:10085000EBC802C81AC831C848C860C877C88FC872
:10086000A6C8BEC8D6C8EDC905C91DC935C94DC978
:1008700064C97CC994C9ACC9C4C9DDC9F5CA0DCA6B
:1008800025CA3DCA56CA6ECA87CA9FCAB7CAD0CA45
:10089000E9CB01CB1ACB32CB4BCB64CB7DCB96CB08
:1008A000AFCBC8CBE1CBFACC13CC2CCC45CC5ECCB7
:1008B00077CC91CCAACCC3CCDDCCF6CD10CD29CD54
:1008C00043CD5CCD76CD90CDA9CDC3CDDDCDF7CEDA
:1008D00011CE2BCE45CE5FCE79CE93CEADCEC7CE48
:1008E000E2CEFCCF16CF30CF4BCF65CF80CF9ACFA3
:1008F000B5CFD0CFEAD005D020D03AD055D070D0E7
:100900008BD0A6D0C1D0DCD0F7D112D12DD149D116
:1009100064D17FD19AD1B6D1D1D1EDD208D224D22F
:100920003FD25BD276D292D2AED2CAD2E5D301D335
:100930001DD339D355D371D38DD3A9D3C6D3E2D325
:10094000FED41AD437D453D46FD48CD4A8D4C5D4FD
:10095000E1D4FED51BD537D554D571D58ED5ABD5C1
:10096000C8D5E5D602D61FD63CD659D676D693D66C
:10097000B0D6CED6EBD708D726D743D761D77ED708
:100980009CD7B9D7D7D7F5D813D830D84ED86CD88C
:100990008AD8A8D8C6D8E4D902D920D93ED95DD9F9
:1009A0007BD999D9B7D9D6D9F4DA13DA31DA50DA52
:1009B0006EDA8DDAACDACADAE9DB08DB27DB45DB95
:1009C00064DB83DBA2DBC1DBE0DC00DC1FDC3EDCC4
:1009D0005DDC7CDC9CDCBBDCDBDCFADD1ADD39DDDC
:1009E00059DD78DD98DDB8DDD7DDF7DE17DE37DEDF
:1009F00057DE77DE97DEB7DED7DEF7DF17DF37DFCC
:100A000058DF78DF98DFB9DFD9DFFAE01AE03BE0A2
:100A10005BE07CE09CE0BDE0DEE0FFE120E140E166
:100A200061E182E1A3E1C4E1E5E207E228E249E213
:100A30006AE28BE2ADE2CEE2F0E311E333E354E3AA
:100A400076E397E3B9E3DBE3FCE41EE440E462E42D
:100A500084E4A6E4C8E4EAE50CE52EE550E572E599
:100A600095E5B7E5D9E5FCE61EE641E663E686E6F0
:100A7000A8E6CBE6EEE710E733E756E779E79CE731
:100A8000BEE7E1E804E828E84BE86EE891E8B4E85E
:100A9000D7E8FBE91EE941E965E988E9ACE9CFE976
:100AA000F3EA17EA3AEA5EEA82EAA5EAC9EAEDEB76
:100AB00011EB35EB59EB7DEBA1EBC5EBEAEC0EEC62
:100AC00032EC56EC7BEC9FECC3ECE8ED0CED31ED39
:100AD00056ED7AED9FEDC4EDE8EE0DEE32EE57EEF9
:100AE0007CEEA1EEC6EEEBEF10EF35EF5AEF7FEFA5
:100AF000A5EFCAEFEFF015F03AF060F085F0ABF03B
:100B0000D0F0F6F11CF141F167F18DF1B3F1D9F1BB
:100B1000FFF225F24BF271F297F2BDF2E3F309F323
:100B20002FF356F37CF3A3F3C9F3EFF416F43CF47C
:100B300063F48AF4B0F4D7F4FEF525F54CF572F5BC
:100B400099F5C0F5E7F60EF635F65DF684F6ABF6E8
:100B5000D2F6FAF721F748F770F797F7BFF7E6F8FC
:100B60000EF836F85DF885F8ADF8D5F8FCF924F9FB
:100B70004CF974F99CF9C4F9ECFA14FA3DFA65FAE7
:100B80008DFAB5FADEFB06FB2FFB57FB80FBA8FBBB
:100B9000D1FBF9FC22FC4BFC74FC9CFCC5FCEEFD7B
:100BA00017FD40FD69FD92FDBBFDE4FE0EFE37FE24
:100BB00060FE89FEB3FEDCFF06FF2FFF59FF82FFB8
:050BC000ACFFD5FFFFB2
:00000001FF
